:1000000008B5406803681B699847003818BF01208D
:1000100008BD10B51446406803685B6898472046E1
:1000200010BD7047004B184700000000004908470A
:10003000000000000148024B184700BF000000000C
:100040000000000070B504460D46164600214068C9
:10005000044B9847324629466068034BBDE8704020
:10006000184700BF000000000000000013B5064B59
:100070000C46012201A99847012812BF00209DF8D3
:100080000430237002B010BD0000000038B50C46EB
:100090001546042806D8DFE800F003050605110020
:1000A0000434146038BD11680B4B042004319847A8
:1000B000636803602B6822681A60F3E71168064BD7
:1000C000042004319847636803602B6822681A6033
:1000D00000232360E6E700BF0000000010B50446DF
:1000E0000821024B9847204610BD00BF00000000C9
:1000F00001490248024B1847B3000000000000000D
:100100000000000010B50A4B98470A4B19680A4BCB
:100110009847044609490A4B0A4898470A4B0B4935
:100120000848002C18BF1946BDE81040084B184776
:100130000000000000000000000000009B00000024
:100140000000000000000000830000008D0000009F
:100150000000000070B50446054D06492846064BD0
:100160009847284621680A22BDE87040034B18478B
:10017000000000004D000000000000000000000032
:1001800070B50446054D06492846064B9847284653
:1001900021680A22BDE87040034B184700000000A8
:1001A0005E000000000000000000000070B5044682
:1001B000054D06492846064B9847284621680A22DD
:1001C000BDE87040034B184700000000100000001D
:1001D000000000000000000070B50446094D0A4E02
:1001E00028460A49B04714F8081B094B0A2228463A
:1001F000984728460749B04721462846BDE8704041
:10020000054B18470000000000000000340000000B
:1002100000000000420000000000000007B5006878
:100220000369019383680BB9034B9847C36801A91D
:10023000984703B05DF804FB0000000010B5084BC0
:100240000A6800689A4204D1836804311BB9054BDF
:100250009847054B9847C368BDE81040184700BF52
:1002600000000000000000000000000038B50C1A7B
:10027000002C134605DD014622461846024DA847CC
:100280000346181938BD00BF00000000012A10B550
:100290000C4602D10160002010BD022A05D0032ABD
:1002A000F9D0002AF7D10260F5E70146024B04209D
:1002B000984723680360EEE70000000003680846E3
:1002C00018470000012A10B50C4602D10160002039
:1002D00010BD022A05D0032AF9D0002AF7D1026006
:1002E000F5E70146024B0420984723680360EEE7D8
:1002F000000000000368084618470000012A10B5F6
:100300000C4602D10160002010BD022A05D0032A4C
:10031000F9D0002AF7D10260F5E70146024B04202C
:10032000984723680360EEE7000000000368086850
:1003300018470000012A10B50C4602D101600020C8
:1003400010BD022A05D0032AF9D0002AF7D1026095
:10035000F5E70146024B0420984723680360EEE767
:100360000000000003681847002810B506D001DA25
:10037000034B9847034BBDE81040184710BD00BF22
:100380000000000000000000F7B506460D4B0D46CA
:100390009847376800260C4B0446009301A90B4B85
:1003A0000420019698470A4B05606A463946204664
:1003B0009847009B1BB1324669460320984703B01B
:1003C000F0BD00BF000000000000000000000000C1
:1003D00000000000004B184700000000004B1847C9
:1003E000000000000A200021004B18470000000018
:1003F00010B58368044613B103220146984720468E
:1004000010BDD0E901239B1A0269B2EBA30F84BF90
:1004100000234375407D7047D0E90132934218BFF5
:1004200083600023036183820360704710B5D0E9C5
:1004300001431B1BB1EBA30F3DBF54F821300068F3
:10044000D218002038BF801810BD000070B5074ECC
:10045000051D044631462846054B98470023314682
:1004600023602846034B9847204670BD07030000D1
:1004700000000000000000000022C0E90022C0E9E6
:10048000022202618282704738B54FF480720021E7
:100490000C4B0446002598474FF0FF330A49C4E946
:1004A0004053C4F80851094B04F586709847C4E9D5
:1004B0004655C4E94855064B04F5947098472046C4
:1004C00038BD00BF0000000007030000000000006E
:1004D0000000000038B5044600F138054FF0FF3247
:1004E00005494FF0FF332846884794F86041284675
:1004F000024B9847204638BD000000000000000075
:1005000010B5034B9847BDE810400021014B184738
:10051000000000000000000010B50446006818B19B
:10052000A168024B091A9847204610BD0000000040
:1005300008B50248024B984708BD00BF0000000004
:100540000000000008B50248024B984708BD00BFF4
:10055000000000000000000030B5836885B0039300
:100560000023D0E900420D68CDE9014205604D68E5
:1005700045608D688560C1E900338B6001A8024B3E
:10058000984705B030BD00BF0000000010B5D0E9AD
:1005900001431B1BB1EBA30F3DBF036854F82110AF
:1005A000D218002038BF505C10BD000008B5D0E95B
:1005B0000132D31AB1EBA30F15D2114B0022984789
:1005C000030612D58F2812D99F2812D9BF2812D915
:1005D000C02807D0C12805D0C3280ED9E02828BFDD
:1005E000E020C0B208BDC120FCE70020FAE780206F
:1005F000F8E79020F6E7A020F4E7C220F2E700BF7A
:100600000000000008B5024B0169984708BD00BF13
:100610000000000008B5064B9847902806D024300B
:10062000C0B201288CBF0020012008BD0120FCE7DA
:100630000000000073B50569D0E901639B1BB5EBB1
:10064000A30F044603D300234375002016E00123C3
:1006500043750D4B9847D22805F1010310D1236152
:1006600056F825002268031D134401A9024413F81B
:1006700001099A4201F8010BF9D1019802B070BD4D
:10068000002223616275E0E70000000073B5056990
:10069000D0E901639B1BB5EBA30F044604D30023F1
:1006A00043750020002118E0012343750E4B984745
:1006B000D32805F1010312D16946236156F82500BC
:1006C000226800F108031344024413F801099A4216
:1006D00001F8010BF9D1DDE9000102B070BD002283
:1006E00023616275DDE700BF0000000070B5066998
:1006F000D0E901239B1AB6EBA30F044603D30023D2
:100700004375002008E00125064B45759847C02831
:100710002E4402D12846266170BD002326616375F0
:10072000EFE700BF0000000008B5064B984780289F
:1007300006D02230C0B201288CBF0020012008BDA5
:100740000120FCE70000000008B5064B9847E028B0
:1007500006D03030C0B203288CBF0020012008BD75
:100760000120FCE70000000008B5064B984730B1B7
:100770003430C0B203288CBF0020012008BD012006
:10078000FCE700BF0000000070B50569D0E9016317
:100790009B1BB5EBA30F044603D300234375002036
:1007A00011E0012343750A4B9847D12805F1010355
:1007B0000AD1236156F825202368134498785B7882
:1007C00063F30F2000B270BD002223616275E6E77B
:1007D0000000000073B50569D0E901639B1BB5EB10
:1007E000A30F044604D3002343759FED100A17E0BE
:1007F000012343750E4B9847CA2805F1010311D117
:10080000236156F825002268031D134401A9024400
:1008100013F801099A4201F8010BF9D19DED010A83
:1008200002B070BD002223616275DEE700000000A7
:10083000000000000000000073B50569D0E9016305
:100840009B1BB5EBA30F044604D3002343759FED18
:10085000120B18E001234375114B9847CB2805F183
:10086000010312D16946236156F82500226800F180
:1008700008031344024413F801099A4201F8010BDA
:10088000F9D19DED000B02B070BD002223616275AD
:10089000DDE700BFAFF300800000000000000000B3
:1008A0000000000038B50569D0E901239B1AB5EBBB
:1008B000A30F044603D30023437500200EE0012359
:1008C0004375094B9847E02805F1010307D12361DF
:1008D000002229462046054B984740B238BD0022E9
:1008E00023616275E9E700BF00000000000000001E
:1008F00038B50569D0E901239B1AB5EBA30F04466F
:1009000003D30023437500200DE001234375084BFA
:1009100098476B1C024638B9236129462046054B8F
:10092000984700F07F0038BD002223616275EAE736
:10093000000000000000000070B50569D0E9012347
:100940009B1AB5EBA30F044603D300234375002085
:100950000DE00126084B46759847CC2805EB0603A9
:1009600006D12361324629462046044B984770BD84
:10097000002223616275EAE7000000000000000029
:1009800010B5D0E901431B1BB1EBA30F37BF54F8DF
:1009900021300020D21803683FBF991848789B5C2B
:1009A00040EA032010BD000070B50569D0E90123BD
:1009B0009B1AB5EBA30F044603D300234375002015
:1009C0000DE00126084B46759847CD2805EB060338
:1009D00006D12361324629462046044B984770BD14
:1009E000002223616275EAE70000000000000000B9
:1009F00013B5D0E901431B1BB1EBA30F10D254F880
:100A0000213001681A44131D0B4401A8114413F846
:100A1000012D8B4200F8012BF9D1019802B010BDD5
:100A20000020FBE738B5424B04460D4698470028A6
:100A300077D08038C3B2602B75D8602873D8DFE8D0
:100A400000F070727272727272727272727272727C
:100A50007272707272727272727272727272727278
:100A600072723F7272727272727272727272727299
:100A70007272727272727272727272727272727256
:100A8000727270727072484F565D62693539743196
:100A90003539743135393133373B3D484F5631356F
:100AA00031357000032038BD0420FCE70520FAE74B
:100AB0000620F8E70920F6E70A20F4E71220F2E71B
:100AC0000022294620461B4B984700F01F000130AA
:100AD000E9E7012229462046164B98470230E2E713
:100AE000012229462046144B98470330DBE70122B8
:100AF00029462046114B98470530D4E70122294664
:100B000020460C4BF0E70122294620460A4B984725
:100B10000430C8E7012229462046084B9847063092
:100B2000C1E70120BFE70020BDE70220BBE700BF0F
:100B300000000000000000000000000000000000B5
:100B400070B50569D0E901239B1AB5EBA30F0446E4
:100B500003D300234375002013E00126124B467592
:100B60009847DC2805EB06030CD0DD2811D090282F
:100B700015D123610022294620460C4B984700F0EE
:100B80000F0070BD3246294620462361084B984726
:100B9000F7E72361324629462046064BF7E7002255
:100BA00023616275D7E700BF00000000000000006D
:100BB000000000000000000038B5037D04460D462B
:100BC0001BB1D0E901239A4202D10023637538BDDD
:100BD0009B1A0269B2EBA30FF7D2054B9847286026
:100BE000637D002BF3D02046024B9847EFE700BF10
:100BF000000000000000000070B50569D0E9012385
:100C00009B1AB5EBA30F044603D3002343750020C2
:100C10000DE00126084B46759847CE2805EB0603E4
:100C200006D12361324629462046044B984770BDC1
:100C3000002223616275EAE7000000000000000066
:100C400070B50569D0E901239B1AB5EBA30F0446E3
:100C500003D300234375002013E00126124B467591
:100C60009847DE2805EB06030CD0DF2811D080283A
:100C700015D123610022294620460C4B984700F0ED
:100C80000F0070BD3246294620462361084B984725
:100C9000F7E72361324629462046064BF7E7002254
:100CA00023616275D7E700BF00000000000000006C
:100CB000000000000000000013B5D0E901431B1B39
:100CC000B1EBA30F12D254F82130016868461A44E0
:100CD00002F108030B44114413F8012D8B4200F874
:100CE000012BF9D1DDE9000102B010BD0020002187
:100CF000FAE7000070B50569D0E901239B1AB5EB4E
:100D0000A30F044604D300234375002001460DE0E1
:100D10000126094B46759847CF2805EB060306D1F7
:100D20002361324629462046044B984770BD002275
:100D300023616275E9E700BF0000000000000000C9
:100D400010B5D0E901431B1BB1EBA30F3DBF0368F6
:100D500054F82110D218002038BF505610BD0000A2
:100D600070B50569D0E901239B1AB5EBA30F0446C2
:100D700003D30023437500200DE00126084B467580
:100D80009847D02805EB060306D123613246294651
:100D90002046044B984770BD002223616275EAE744
:100DA000000000000000000010B5084B0446984702
:100DB000D62808D1064B0122204621699847431CBA
:100DC0005842584110BD0020FCE700BF0000000061
:100DD0000000000010B5084B04469847D72808D1FA
:100DE000064B0122204621699847431C584258412E
:100DF00010BD0020FCE700BF000000000000000064
:100E000038B50C4B04469847C72811D125690222F2
:100E100029462046084B9847013009D1074B01224B
:100E2000294620469847A0F10C035842584138BD46
:100E30000020FCE7000000000000000000000000AF
:100E400010B5D0E901431B1BB1EBA30F3DBF0368F5
:100E500054F82110D218002038BF505C10BD00009B
:100E600038B5037D04460D461BB1D0E901239342FA
:100E700003D100236375002038BD9B1A0269B2EBD1
:100E8000A30FF6D2044B98472870637D002BF2D055
:100E90002046024B9847EFE70000000000000000EA
:100EA00070B5037D04460D461BB1D0E90123934282
:100EB00003D100236375002070BD06699B1AB6EB51
:100EC000A30FF6D2012343750C4B9847C22806F1B5
:100ED00001030FD12361002231462046084B984779
:100EE00000F001002870637D002BE4D02046054B04
:100EF0009847E1E7002023616075F3E700000000F8
:100F000000000000000000002DE9F043037D0446CE
:100F10000E4685B01BB1D0E90123934205D10023D1
:100F20006375002005B0BDE8F08305699B1AB5EB39
:100F3000A30FF4D20127464B47759847DA28454B53
:100F40006CD00BD8A02824D0D9284DD00022013550
:100F500041496275256101A898472FE0DB28F5D14A
:100F60003D4901A898473A46204621693B4B98479E
:100F700000250746DFF8FC80DFF8FC90AF422169CE
:100F80001AD06A1D2046C047014601A8C84701354E
:100F9000F4E7314901A89847002220462169304BE7
:100FA00098470025DFF8CC80DFF8CC9000F01F07D1
:100FB000EBB29F4221690FD801312161294B01A970
:100FC00030469847284B01A89847637D002BA8D04E
:100FD0002046264B9847A5E701352A462046C047BC
:100FE000014601A8C847E3E71B4901A898473A46CC
:100FF000204621691A4B984700250746DFF8748080
:10100000DFF87490EBB2BB422169D5D2AA1C20460E
:10101000C047014601A8C8470135F3E70E4901A8BA
:1010200098473A4620462169114B984700250746C4
:10103000DFF84080DFF84090ABB29F422169BBD916
:10104000EA1C2046C047014601A8C8470135F3E71E
:101050000000000000000000070300000000000086
:101060000000000000000000000000000000000080
:101070000000000000000000000000002DE9F04129
:10108000037D04460E461BB1D0E90123934204D1EF
:10109000002363750020BDE8F08107699B1AB7EB58
:1010A000A30FF5D2012343751F4B984707F10108A1
:1010B00090B11E4B022239462046C4F81080984752
:1010C00000231D46C6E90003B560637D002BE1D017
:1010D0002046174B9847DEE72046164B984750B1FD
:1010E000154B022239462046C4F8108098478D08D7
:1010F00001F00303E6E72046104B9847054670B120
:1011000003223946094B204698470B4B05460722D8
:1011100039462046C4F8108098470B46D2E703466C
:101120006075C4F81080CDE70000000000000000EA
:1011300000000000000000000000000000000000AF
:10114000F8B507460423194E013B00D1FEE7356888
:10115000BD4202D174682046F8BD25BB3146144B10
:1011600041F8087B4FF4846098474FF4806204464E
:10117000104B294640F8047B98474FF0FF330E4A46
:10118000C4F808341368C4F804540133C4F80C5488
:10119000C4F81054C4F81454C4F81854C4F81C54B7
:1011A00013607460D7E706F58566CDE700000000A0
:1011B00000000000000000000000000010B5044620
:1011C000006818B1A168024B091A9847204610BD63
:1011D0000000000010B50446064B00F596709847D5
:1011E000054B04F58C709847044B04F586709847BE
:1011F000204610BD000000000000000000000000BC
:1012000010B50446034B98472168034BBDE81040D6
:10121000184700BF000000000000000010B505489E
:10122000054B984728B9BDE810402A210148034BD7
:10123000184710BD00000000000000000000000082
:1012400010B50548054B984728B9BDE8104007215F
:101250000148034B184710BD0000000000000000CB
:101260000000000010B50548054B984728B9BDE8B7
:10127000104063210148034B184710BD00000000D7
:1012800000000000000000000022C0E9002282608F
:10129000704700002DE9FF410546124B0C46984768
:1012A000D5F800806D4600260F4B0746284600966D
:1012B000C5E901669847E3680393A36833B194E8EE
:1012C0000300C4E9026685E8030002932A4641460A
:1012D0003846064B98472846054B984704B0BDE86A
:1012E000F08100BF000000000000000000000000CE
:1012F00000000000012A2DE9F0410646154604D100
:101300000B6803600020BDE8F081022A05D0032AA3
:101310001ED0002AF6D10260F4E7134B10200F68AC
:1013200098474FF000080446104BC0E90088C0F809
:1013300008809847BB68C4F80C803BB12A46394600
:1013400020469847FB68E360BB68A3603460D9E738
:101350000468002CD6D02046054B98471021204623
:10136000044B9847CEE700BF0000000000000000DB
:101370000000000000000000012A2DE9F0410646AF
:10138000154604D10B6803600020BDE8F081022AF5
:1013900005D0032A20D0002AF6D10260F4E7144BCE
:1013A00014200F6898474FF000080446114BC0E91D
:1013B0000088C0F808809847BB68C4F80C803BB12F
:1013C0002A46394620469847FB68E360BB68A3601D
:1013D0003B6934602361D7E70468002CD4D02046F1
:1013E000054B984714212046044B9847CCE700BF93
:1013F00000000000000000000000000000000000ED
:1014000070B500250446C0E90055084B85600E46BE
:1014100098472146064BE56004209847054B066037
:10142000E360054B2046A36070BD00BF00000000D4
:101430000000000000000000000000001FB50A4B83
:1014400018600A4B9847044609496846094B984773
:101450006A464FF496712046074B98476846074BFB
:10146000984704B010BD00BF00000000000000005D
:10147000000000000000000000000000000000006C
:101480001FB50A4B18600A4B98470446094968463D
:10149000094B98476A4640F2DC512046074B984773
:1014A0006846074B984704B010BD00BF000000001D
:1014B000000000000000000000000000000000002C
:1014C000000000001FB50A4B18600A4B98470446FD
:1014D00009496846094B98476A464FF47A71204695
:1014E000074B98476846074B984704B010BD00BFAC
:1014F00000000000000000000000000000000000EC
:10150000000000000000000070B500250446C0E99E
:101510000055084B85600E4698472146064BE5600E
:1015200004209847054B0660E360054B2046A36006
:1015300070BD00BF000000000000000000000000BF
:101540000000000070B500250446C0E90055084BB6
:1015500085600E4698472146064BE5600420984773
:10156000054B0660E360054B2046A36070BD00BFDD
:10157000000000000000000000000000000000006B
:1015800070B500250446C0E90055084B85600E463D
:1015900098472146064BE56004209847054B0660B6
:1015A000E360054B2046A36070BD00BF0000000053
:1015B0000000000000000000000000002DE9F043E2
:1015C000134B85B00C4607466D4698470026114BD5
:1015D000804628460096D7F80090C5E901669847EE
:1015E000E3680393A36833B194E80300C4E9026697
:1015F00085E8030002932A4649464046064B984731
:101600002846064B9847384605B0BDE8F08300BF32
:1016100000000000000000000000000000000000CA
:101620002DE9F84F6FF06043D0E9008A1546AAEB28
:101630000802B3EBA20F074689464FEAA20402D183
:101640002748284B9847C24514BF22460122A418B8
:10165000A1EB080B2BD264B39C4228BF1C46224B43
:10166000A00098470646214B042006EB0B01984743
:101670002B68BBF1000F03600BF10405AAEB090A0C
:1016800019DD5A4641463046194B98477019BAF150
:10169000000F00EB0A0503DD52464946154B9847FB
:1016A000B9684046144BA1EB0801984710E01C466E
:1016B000D5E72646D7E7BAF1000F354404DD524698
:1016C000494628460B4B98475544B8F1000FE7D1DF
:1016D000C7E9006506EB8406BE60BDE8F88F00BF71
:1016E00054030000000000000000000000000000A3
:1016F0000000000000000000000000002DE9F7439A
:10170000044616460025184FDFF86080DFF8609029
:101710000160AE42A16801950FD8636851F8045C7E
:10172000C91A891020460139B8472844831B5842FA
:101730005841207503B0BDE8F083E3688B420ED0BA
:101740000420C8470560A3680433A360D4E90131CD
:10175000C91A891020460139B8470544D9E7194606
:1017600001AA201DC047F1E70000000000000000B2
:10177000000000002DE9F041044600F130070E465C
:1017800015464FF0FF334FF0FF3238460649884781
:1017900020462946054B40F8046B98473846BDE87B
:1017A000F041034B184700BF00000000000000009C
:1017B000000000002DE9FF41044688460025174639
:1017C0001E46134B98474146C4E90455114B04F19A
:1017D000180098470A9B1422E36204F1300329465B
:1017E0001846C4E909760C4DA8470C4B98470C499C
:1017F0000C4B01A89847FF21204601AA0A4B9847A5
:101800000A4B01A89847204604B0BDE8F08100BF0C
:1018100000000000000000000000000000000000C8
:10182000BE020000000000000000000000000000F8
:101830001FB504460749084B01A89847FF212046D9
:1018400001AA064B9847064B01A89847002004B010
:1018500010BD00BF9D02000000000000000000005D
:101860000000000038B5044600F130054FF0FF32AB
:1018700007494FF0FF332846884724682846002C44
:10188000D4BF00240124034B9847204638BD00BF35
:10189000000000000000000070B500260D46044660
:1018A000084BC0E9006686609847EB68E360AB6868
:1018B00033B195E80300C5E9026684E80300A3603C
:1018C000204670BD00000000F0B5294B8BB00646E5
:1018D0000D4698470446002846D029460025254F46
:1018E00005A8B847CDE90055234B029568460994F1
:1018F0009847224B039514209847054605A9B847F9
:10190000099B69462B611E4B009503931D4B304686
:1019100002931D4B984705461C4F6846B84705A8DB
:10192000B8470DBB1A491B4B8DF80050019502A812
:101930009847032318498DF8003002A8174B9847A1
:101940009DF8003002A98DF81430019B07A806937A
:10195000134B98472146134B05AA30469847124D22
:1019600007A8A84702A8A84720460BB0F0BD00BFB3
:101970000000000000000000000000000000000067
:101980000000000000000000000000000000000057
:1019900007030000000000006B02000000000000D0
:1019A0000000000000000000000000001FB5044619
:1019B000064B6846984769462046054B98470446BB
:1019C000044B68469847204604B010BD0000000054
:1019D000000000000000000070B500260D4604461F
:1019E000084BC0E9006686609847EB68E360AB6827
:1019F00033B195E80300C5E9026684E80300A360FB
:101A0000204670BD000000002DE9F0410D4688B071
:101A1000154B04469847294600250646134F68464D
:101A2000D4F80080B847124B04A8CDE904550695B8
:101A30009847104B10200795984705466946B847C8
:101A40000D4B414607930D4B04AA304606930C4BB1
:101A5000049598470B4D04A8A8476846A847204618
:101A600008B0BDE8F08100BF0000000000000000E9
:101A70000000000000000000000000000000000066
:101A8000000000000000000010B504461046D4E934
:101A900000236FF000449B1AE21A8A4201D2074BDE
:101AA0009847994238BF19465B1804D2A34228BF11
:101AB0002346184610BD2046FCE700BF000000008A
:101AC0002DE9F047D0E901739F4204468846DFF8CC
:101AD00078A00AD039460120D04798F8003003702A
:101AE000636801336360BDE8F087134A0121134B3B
:101AF0009847134B266881469847B91B0144054611
:101B00000120D04798F80030394603702A46DFF8A4
:101B10003C803046C0473946421C3846C0470746DD
:101B200026B1A1683046074B891B9847C4E9005786
:101B30004D44A560D7E700BF54030000000000003B
:101B40000000000000000000000000000000000095
:101B500007B5044B8DF807100DF10701984703B046
:101B60005DF804FB000000002DE9F047D0E90173A7
:101B70009F4204468846DFF878A00AD03946012003
:101B8000D04798F800300370636801336360BDE8A4
:101B9000F087134A0121134B9847134B266881465F
:101BA0009847B91B014405460120D04798F80030FA
:101BB000394603702A46DFF83C803046C047394634
:101BC000421C3846C047074626B1A1683046074B3D
:101BD000891B9847C4E900574D44A560D7E700BF6B
:101BE000540300000000000000000000000000009E
:101BF000000000000000000037B504460D46074B0A
:101C0000CC2198472046064B0DF107018DF807506F
:101C10009847E3680133E36003B030BD0000000083
:101C2000000000002DE9F047D0E901739F4204460F
:101C30008846DFF878A00AD039460120D04798F8C6
:101C400000300370636801336360BDE8F087134AB6
:101C50000121134B9847134B266881469847B91BBF
:101C6000014405460120D04798F8003039460370FA
:101C70002A46DFF83C803046C0473946421C384689
:101C8000C047074626B1A1683046074B891B9847D5
:101C9000C4E900574D44A560D7E700BF54030000D6
:101CA0000000000000000000000000000000000034
:101CB00000000000F8B505460E460324034F311915
:101CC0002846B847013CFAD2F8BD00BF000000002A
:101CD00013B504460191064BCE2198472046054B8B
:101CE00001A99847E3680133E36002B010BD00BF6B
:101CF000000000000000000070B505460C46044ED0
:101D00000131B047214628463346BDE870401847A8
:101D1000000000000F2913B504460BD861F06F01D5
:101D20008DF804100D4B01A99847E3680133E36077
:101D300002B010BDB1F5803F094B08D2ADF80410D8
:101D4000DC2198472046074B01A99847EDE7019110
:101D5000DD2198472046044B01A9F6E7000000006A
:101D600000000000000000000000000013B5044661
:101D7000ADF80610064BCD2198472046054B0DF1D6
:101D800006019847E3680133E36002B010BD00BF6D
:101D900000000000000000007E2913B504460AD8A8
:101DA0000D4B8DF807100DF107019847E3680133DB
:101DB000E36002B010BDFF2903D8084BC9B29847B1
:101DC000F7E7B1F5803F03D2054B89B29847F0E7BA
:101DD000044B9847EDE700BF000000000000000042
:101DE000000000000000000073B50C1E054621DB5A
:101DF0007E2C08DC8DF8044001A9234B9847EB6842
:101E00000133EB6008E0E317B4F5807F73F1000263
:101E100004D21E4BE1B2984702B070BDB4F5803FCA
:101E200073F1000303D21A4BA1B29847F4E7194BA0
:101E30009847F1E714F11E0FDCDA14F1800F164B0E
:101E400006DBD021984728468DF8044001A9D4E745
:101E500014F5004F114E0BDBD121ADF8044098472B
:101E600028460DF10501B047284601A9B047C6E74D
:101E70000194D2219847032401AB19192846B04791
:101E8000013CF9D2BBE700BF0000000000000000E9
:101E90000000000000000000000000000000000042
:101EA0002DE9F84F04460D46DFF88CA001EB020B3C
:101EB000AB4501D1BDE8F88FD4E90183984509D03D
:101EC00041460120D0472B7803706368013363607B
:101ED0000135EDE7134A0121134B20469847134B78
:101EE000276881469847A8EB070101440646012070
:101EF000D0472B784146037032460D4B3846984701
:101F00004146421C0A4B40469847804627B1A1688B
:101F10003846084BC91B9847C4E900684E44A66080
:101F2000D6E700BF540300000000000000000000DE
:101F3000000000000000000000000000F7B58D6800
:101F400004461F2D0F68174E0FD865F05F038DF8FC
:101F5000043001A9144B98472A4639462046B04719
:101F6000E3680133E36003B0F0BDFF2D0F4B06D8EB
:101F7000D921984720468DF8045001A9EAE7B5F524
:101F8000803F08D2DA2198472046094BADF804502B
:101F900001A99847E0E7DB2198472046054B0195CA
:101FA00001A9F6E7000000000000000000000000AA
:101FB000000000000000000038B50569D0E90123E9
:101FC0009B1AB5EBA30F044603D3002343750020EF
:101FD0001CE001234375214B984728B300F13403DB
:101FE000DBB2142B35D8CC38142832D8DFE800F017
:101FF0001F22252B0F12151831313131313131317A
:10200000313131310B002046154B984738BD204601
:10201000144BFAE72046144BF7E72046134BF4E73E
:102020002046134B9847F1E72046124BEDE7204638
:10203000114BEAE72046114BE7E72046104B984743
:1020400020EAE070E2E720460E4B98470029DDDAEF
:10205000BDE70023013563752561B8E70000000086
:102060000000000000000000000000000000000070
:102070000000000000000000000000000000000060
:10208000000000000000000038B5037D04460D4646
:102090001BB1D0E90123934203D1002363750020D3
:1020A00038BD9B1A0269B2EBA30FF6D2044B9847D6
:1020B0002860637D002BF2D02046024B9847EFE763
:1020C000000000000000000038B50569D0E90123D8
:1020D0009B1AB5EBA30F044604D3002343759FED71
:1020E0002F0A21E0012343752D4B9847A8B100F139
:1020F0003603DBB2162B4BD8CA38162848D8DFE88F
:1021000000F03B3F14171A1D2D3033364747474721
:10211000474747474747474725002046214B9847B1
:1021200000EE100AB8EE400A38BD20461E4BF6E716
:1021300020461E4BF3E720461D4BF0E71D4B204683
:1021400098471D4B984700EE100AEDE720461B4BC1
:10215000984700EE100AB8EEC00AE5E72046184B93
:10216000F6E72046174BF3E72046174BF0E7174BEF
:1021700020469847164BE5E72046164B9847D3E78D
:102180002046154B9847154B51EC100B9847DAE752
:102190000023013563752561A1E700BF0000000041
:1021A000000000000000000000000000000000002F
:1021B000000000000000000000000000000000001F
:1021C000000000000000000000000000000000000F
:1021D00000000000000000000000000000000000FF
:1021E00038B50569D0E901239B1AB5EBA30F044666
:1021F00004D3002343759FED2C0B21E0012343758D
:102200002B4B9847A8B100F13603DBB2162B46D80A
:10221000CA38162843D8DFE800F0363E14171A1DD6
:10222000282B2E31424242424242424242424242E4
:10223000230020461F4B98471F4B984741EC100B3B
:1022400038BD20461D4BF6E720461D4BF3E72046E0
:102250001C4BF0E71C4B204698471C4B9847EDE77A
:1022600020461B4B98471B4BE7E720461A4BF9E7E4
:1022700020461A4BF6E72046194BF3E7194B204648
:102280009847194BEAE72046184B9847184B10EE31
:10229000100A9847D2E72046164B9847D0E700230C
:1022A000013563752561A6E700000000000000000D
:1022B000000000000000000000000000000000001E
:1022C000000000000000000000000000000000000E
:1022D00000000000000000000000000000000000FE
:1022E00000000000000000000000000000000000EE
:1022F00000000000000000002DE9F7430F69D1E95C
:1023000001239B1AB7EBA30F06460D4608D3002303
:102310004B75C0E900338360304603B0BDE8F083FD
:102320004FF001080846344B81F815809847C528BE
:102330004FF0000421D0C6283BD0C42854D1C6E9B0
:102340000044B460424628462969DFF8B880C04797
:102350000746DFF8B490E3B29F42296902D8013101
:102360002961D9E7A21C2846C0470DF107018DF865
:1023700007003046C8470134EDE7C6E90044B460C1
:102380004246284629691D4B98470746DFF8748066
:10239000DFF87490A3B2BB422969E0D2E21C284660
:1023A000C0470DF107018DF807003046C8470134DA
:1023B000F0E7C6E90044B460424628462969104B5C
:1023C00098470746DFF83C80DFF83C90A742296930
:1023D000C5D0621D2846C0470DF107018DF80700E2
:1023E0003046C8470134F1E701376C752F61C6E903
:1023F0000044B46090E700BF00000000000000004F
:1024000000000000000000000000000070B5037D27
:1024100004460E4615461BB1D0E90123934203D171
:1024200000236375002070BD9B1A0269B2EBA30FF5
:10243000F6D2054B98473060637D002BF2D02946D9
:102440002046024B9847EEE7000000000000000025
:10245000F8B506460F4615460024AC4201D3204687
:10246000F8BD30682A1B036839199B6898470444F3
:10247000F3E700002DE9F04300258846044685B0C7
:10248000D0F8187404216846DFF870901646CDE93C
:102490000055CDE90255C84729466846124B984772
:1024A00039466846114B9847114B41466846984754
:1024B00029466846C847DDE900156D1A2A462046B8
:1024C0000C4B984785420C4A04D06846904705B0AB
:1024D000BDE8F083D4F8183468460133C4F81834E2
:1024E00090473760F3E700BF0000000000000000E5
:1024F00000000000000000000000000000000000DC
:102500002DE9F04304460D461646DFF89490DFF8B7
:10251000948085B000F12407642200233846C84720
:10252000002831D12368CDE90000CDE90200DFF8B1
:10253000789068460321D3F80080144CC847684659
:102540000221A047124B2946684698476846012158
:10255000C84768463168A047DDE90014641A0D4B8E
:10256000224640469847844208BFD8F81834684647
:1025700004BF0133C8F81834074B98473846074B57
:1025800005B0BDE8F0431847C047C5E700000000AC
:10259000000000000000000000000000000000003B
:1025A00000000000000000000000000008B5D1F8A5
:1025B00004315A1C09D0D1E946128A4205D0022BB7
:1025C00003D00068014B521A984708BD0000000074
:1025D000034670B508465418D3F804148C421DD82D
:1025E000B8B16FF003060432091A1A44F61AB51886
:1025F000A9420FD8D3F81024C3F8041494428DBF15
:102600000022121AC3F81024C3F8102488BFC3F89C
:10261000142470BD155C02F8015BE8E70020F8E7C0
:1026200010B5094B0022D0F80C14044698474FF01F
:10263000FF33C4F808340023C4F80C34D4F81C3435
:102640000133C4F81C3410BD000000002DE9F04136
:10265000037D04460D4616461BB1D0E90123934283
:1026600003D10023637500202AE09B1A02694FEA18
:10267000A308B2EBA30FF4D2124A134F136813F05E
:10268000010302BF3B6001231360104B9847637D39
:102690003860002BE7D023699845E2D90C4B2046DF
:1026A00098472860637D002BDDD00A4B2046291D0A
:1026B0009847637D002BD6D031462046064B98477D
:1026C000BDE8F081000000000000000000000000F4
:1026D00000000000000000000000000038B505699F
:1026E000D0E901239B1AB5EBA30F044603D30023C3
:1026F0004375002013E001234375124B984758B1EE
:1027000000F13403DBB2032B17D8CD38022807D8E9
:10271000DFE800F0090C0F0020460B4B984738BD4E
:1027200020460A4BFAE72046094BF7E72046094BBB
:10273000F4E72046084B9847F1E70023013563751D
:102740002561D6E700000000000000000000000046
:1027500000000000000000000000000070B5037DD4
:1027600004460E4615461BB1D0E90123934203D11E
:1027700000236375002070BD9B1A0269B2EBA30FA2
:10278000F6D2054B98473060637D002BF2D0294686
:102790002046024B9847EEE70000000000000000D2
:1027A0002DE9F041D1F80C740446032F0D462A4E52
:1027B0008CB006D820462949B04720460CB0BDE869
:1027C000F081D1F8083433F00208F3D1244B06A885
:1027D0009847244B06A898473A46234B291D06A83C
:1027E000984748B92846214B984720461B49B0478F
:1027F0001F4B07A89847E0E7184903A8B0476A4667
:102800001C4B01A906A8CDF80480984748B9284672
:10281000164B984720461149B047174B03A89847D5
:10282000E6E7009B73B9019B042BF0D1134B03AA7D
:1028300002A906A898470028E9D02046104B03A912
:102840009847EAE7022BE2D1019B032BDFD10D4B26
:1028500003A906A89847EEE7000000000703000060
:102860000000000000000000000000000000000068
:102870000000000000000000000000000000000058
:102880000000000000000000F0B5D0F80051044640
:1028900087B01DB90025284607B0F0BD00F5947635
:1028A00030461E4B98472A46214630461C4B9847D7
:1028B0000028EFD01B491C4B03A8984700236A4609
:1028C00002933046194B02A99847054620B90025C6
:1028D000174B03A89847DEE7009FA7B9029B042B7C
:1028E000F5D13046134B03AA01A998470028EED032
:1028F000114B03A904F586709847019BC4F8047135
:10290000C4F80831E4E7022FE1D1029B032BDED1AA
:1029100030460A4B03A99847E8E700BF00000000D3
:10292000000000000703000000000000000000009D
:102930000000000000000000000000000000000097
:102940002DE9F04F3F4B064689B008460C469847A4
:1029500004F5867804F59479C0B94FF0FF333A490D
:10296000C4E94130C4F80001384B40469847384B21
:1029700048469847D4E94632934218BFC4F81C3100
:102980000023C4F8243109B0BDE8F08FD4E9463201
:10299000934218BFC4F81C310023C4F82431D4F882
:1029A000043104F58C7563B904212846294B9847F6
:1029B00001212846284B98472846D4F80811274B70
:1029C00098470027DFF8ACB006F1040AD6F8F43ACD
:1029D00041469F4223D3224B01A89847FE2301A9D9
:1029E000049305A81F4B984728460221194B984786
:1029F00028460499184B9847284605A91A4B98472A
:102A0000C0212846194B9847D4F8243105A8013332
:102A1000C4F82431164CA04701A8A047B3E750469C
:102A2000D8470AF11C0A58B11C232A46494603FB21
:102A30000763D86903689B6809B0BDE8F04F184781
:102A40000137C3E70000000007030000000000009A
:102A50000000000000000000000000000000000076
:102A60000000000000000000000000000000000066
:102A700000000000000000002DE9F0411E46037D2B
:102A80000446884617461BB1D0E901359D4204D162
:102A9000002363750020BDE8F081ED1A0369B3EBF4
:102AA000A50FF5D2184B9847C8F80000637D002B9E
:102AB000F0D0237D002BEBD0D4E901318B42E7D05D
:102AC000C91A2369B3EBA10FE2D2104B20469847F5
:102AD0003860637D002BDDD0237D002BD8D0D4E976
:102AE00001329342D4D0D21A2369B3EBA20FCFD2D2
:102AF000074B204698473060637D002BCAD02046A4
:102B0000044B9847C7E700BF00000000000000002A
:102B100000000000000000002DE9F043D0F814642C
:102B200004460F4690461D468BB096B14A4B04A80A
:102B300098474A4B04A89847D4F81034211D1944EB
:102B40003246474B04A8984738B90026454B05A89C
:102B5000984730460BB0BDE8F0834FF00009424E75
:102B600003AB02AA01A904A8CDF80490B047064619
:102B70000028EAD0039BBB42E7D1029B3B4F012BCD
:102B80001BD02846FC233A4940F8043B394B984770
:102B90002046D4F81024D4F81414B847D4F81034CC
:102BA0002BB94FF0FF32C4F80C34C4F80824D4F821
:102BB0001C340133C4F81C34C8E7019B042B05D036
:102BC0002846FC232C4940F8043BDFE72B4B04A8A4
:102BD0008DF800909847C02831D19DF824301BB162
:102BE000DDE905239A4208D100238DF825302846D7
:102BF000FC23234940F8043BC8E79B1A089AB2EB30
:102C0000A30FF1D21F4B04A898479DF825308DF8EB
:102C10000000002BEBD041461B4B04A8984700282E
:102C2000E5D0D4F810242AB94FF0FF33C4F80C24AF
:102C3000C4F808342046D4F81414B84786E76A4626
:102C40002946124B04A898470028EAD12846FC23BD
:102C50000F4940F8043B99E7000000000000000025
:102C60000000000000000000000000000000000064
:102C70003E010000000000005701000000000000BD
:102C800074010000000000000000000000000000CF
:102C9000950100002DE9F043D0F8146404460F4676
:102CA00090461D468BB096B14A4B04A898474A4BB4
:102CB00004A89847D4F81034211D19443246474BD4
:102CC00004A8984738B90026454B05A898473046D0
:102CD0000BB0BDE8F0834FF00009424E03AB02AAEF
:102CE00001A904A8CDF80490B04706460028EAD010
:102CF000039BBB42E7D1029B3B4F012B1BD02846D5
:102D0000FC233A4940F8043B394B98472046D4F815
:102D10001024D4F81414B847D4F810342BB94FF059
:102D2000FF32C4F80C34C4F80824D4F81C3401333E
:102D3000C4F81C34C8E7019B042B05D02846FC23AB
:102D40002C4940F8043BDFE72B4B04A88DF800909A
:102D50009847C02831D19DF824301BB1DDE9052307
:102D60009A4208D100238DF825302846FC232349B8
:102D700040F8043BC8E79B1A089AB2EBA30FF1D2C4
:102D80001F4B04A898479DF825308DF80000002BB4
:102D9000EBD041461B4B04A898470028E5D0D4F857
:102DA00010242AB94FF0FF33C4F80C24C4F80834B7
:102DB0002046D4F81414B84786E76A462946124BD1
:102DC00004A898470028EAD12846FC230F4940F878
:102DD000043B99E700000000000000000000000034
:102DE0000000000000000000000000003E010000A4
:102DF0000000000057010000000000007401000006
:102E0000000000000000000000000000950100002C
:102E10002DE9F043D0F8146404460F4690461D4651
:102E20008BB096B14A4B04A898474A4B04A89847E0
:102E3000D4F81034211D19443246474B04A8984752
:102E400038B90026454B05A8984730460BB0BDE879
:102E5000F0834FF00009424E03AB02AA01A904A877
:102E6000CDF80490B04706460028EAD0039BBB4249
:102E7000E7D1029B3B4F012B1BD02846FC233A494C
:102E800040F8043B394B98472046D4F81024D4F836
:102E90001414B847D4F810342BB94FF0FF32C4F8EB
:102EA0000C34C4F80824D4F81C340133C4F81C349E
:102EB000C8E7019B042B05D02846FC232C4940F889
:102EC000043BDFE72B4B04A88DF800909847C028FF
:102ED00031D19DF824301BB1DDE905239A4208D198
:102EE00000238DF825302846FC23234940F8043B75
:102EF000C8E79B1A089AB2EBA30FF1D21F4B04A8A4
:102F000098479DF825308DF80000002BEBD0414606
:102F10001B4B04A898470028E5D0D4F810242AB900
:102F20004FF0FF33C4F80C24C4F808342046D4F81A
:102F30001414B84786E76A462946124B04A89847F6
:102F40000028EAD12846FC230F4940F8043B99E7C2
:102F50000000000000000000000000000000000071
:102F600000000000000000003E0100000000000022
:102F70005701000000000000740100000000000084
:102F800000000000000000009501000038B50C1A98
:102F9000134605D0014622461846024DA84703466F
:102FA000181938BD0000000038B50C1A134605D0BA
:102FB000014622461846024DA8470346181938BD57
:102FC000000000002DE9F74F9846002308F1010AA0
:102FD0009A45044689461746C0E90033836002DA01
:102FE0002F48304B984713D02F4B504698472668B0
:102FF00005460246616830462C4B984726B1A168C9
:1030000030462B4B891B9847C4E900555544A560B1
:103010002046284B0DF1070107EB080B8DF80790B0
:103020009847BB4516D0D4E901639B1B9845DFF850
:1030300090A0DFF8909011D8324659463846D047D4
:1030400062683146424462603046C847324639467B
:103050003846D047204603B0BDE8F08F4146164AB7
:10306000164B20469847104B8046984731460246FB
:1030700005462068C847594602463846D047616829
:1030800002463046C8470646206818B1A168084B7A
:10309000091A9847C4E900564544A560DAE700BF1D
:1030A000DF0200000000000000000000000000003F
:1030B0000000000000000000EF020000000000001F
:1030C00000000000000000002DE9F8430D69D1E97F
:1030D00001239B1AB5EBA30F06460C4605D300232C
:1030E0004B75C6E90033B36026E0012308464B75F3
:1030F0004C4B9847C7386F1C112800F28F80DFE8CF
:1031000000F05A6F7E8D8D8D8D8D8D8D8D8D8D09FD
:103110001E2D3C4B01222946434B20469847022254
:10312000424B8046294620462761984701230246A4
:10313000414630463E4CA0473046BDE8F883012268
:103140002946394B204698470222384B804629466B
:1031500020462761984702230246E9E701222946D3
:10316000314B204698470222304B80462946204664
:103170002761984704230246DAE7012229462A4BB1
:10318000204698470222294B80462946204627613F
:10319000984708230246CBE701222946224B2046C6
:1031A00098470222214B80462946204627619847AE
:1031B00010230246BCE7012229461E4B20469847B1
:1031C0000222814629462046174B98470322804613
:1031D0002761164B2946204698474B460246A7E7EB
:1031E00001222946144B204698470322814629464E
:1031F00020460D4B9847042280462761E9E70122CB
:1032000029460E4B204698470522814629462046EE
:10321000054B9847062280462761DAE7002327619D
:1032200063755EE700000000000000000000000081
:10323000000000000000000000000000000000008E
:103240002DE9F043804B85B004469847C0280646D8
:1032500004D120467D497E4B984731E0C22803D1F6
:1032600020467C497C4BF7E720467C4B984720B9A9
:1032700020467B4B9847054618B1204679497A4B42
:10328000EAE7CA2E1ED1237D1BB1D4E901239A425D
:1032900005D100236375284605B0BDE8F0839B1A6D
:1032A0002269B2EBA30FF4D2704B20469847704BC3
:1032B00083ED000A637D002BEDD020466D4B9847CF
:1032C0000546E8E7CB2E12D1237D002BE1D0D4E9CF
:1032D00001239A42DDD09B1A2269B2EBA30FD8D208
:1032E000654B20469847654B83ED000BE2E7A02E27
:1032F00021D006F12703DBB2022B1CD906F13C03D7
:10330000DBB2022B28D920465D4B984707460028A0
:1033100053D0002520465B4B019501A998472E46C6
:10332000DFF8C881DFF8C891019BC8F800509E42C1
:1033300038D33D46AFE7544D2B68DA0708D4534BDA
:10334000534954489847012353482B60534B98479F
:1033500020465049524B7FE752490B68DB0709D49E
:103360000022514B5148C3E900229A6001230B60AF
:103370004A4B9847237D002B8BD0D4E901239A42F6
:1033800087D09B1A2269B2EBA30F82D2214601A8F3
:10339000474B9847444801A9464B9847464B01A8DC
:1033A000984787E72046C847054600283FF473AF93
:1033B000D8F8003001365D1CB6E720463F4B9847F1
:1033C00018B120463E493F4B46E706F12C03DBB2DD
:1033D000042B15D93936F6B2022E11D920463A4BB4
:1033E000984748B92046394B984728B92046384B6A
:1033F000984700283FF44FAF20463649364B2BE71D
:1034000036490B6813F0010308D1354A3548C2E943
:103410000033936001230B60204B9847237D002BE2
:103420003FF437AFD4E901239A423FF432AF9B1AFD
:103430002269B2EBA30FBFF42CAF214601A82A4B9F
:103440009847274801A9A7E70000000000000000F6
:10345000000000000000000000000000000000006C
:10346000000000000000000000000000000000005C
:10347000000000000000000000000000000000004C
:10348000000000000000000000000000000000003C
:103490000703000000000000000000000000000022
:1034A000000000000000000000000000000000001C
:1034B000000000000000000000000000000000000C
:1034C00000000000000000000000000000000000FC
:1034D00000000000000000000000000000000000EC
:1034E00000000000000000000000000000000000DC
:1034F000000000002DE9F04FD0F80C340446032BF7
:1035000089B05AD9D0F81434002B6BD1D0F810649C
:103510003A4B02A898474FF0FF38002504F1040900
:10352000DFF8FCA0B144D4F8042473199A4256D9A8
:1035300002A80135D0472A464946314B02A8984790
:103540000028F0D02F4B02A898470028EBD000238A
:103550006946009302A82C4B9847009FD7B12B4B8C
:1035600002A8984718B92A4B02A8984738B3294BA4
:1035700001A902A89847012FDDF804800AD001278D
:10358000DFF8A0B002A8D8470028CCD0009B0137B4
:103590009F42F7D3B8F1020F17D814D0042F14D1DB
:1035A0001EB9C4F80884C4F80C54B8F1010F21D135
:1035B000C4F81064C4F8145411E00026A8E70746C4
:1035C0006FF00108DCE7032F0FD0134B324629467A
:1035D00020469847D4F81C340133C4F81C340F4BF0
:1035E00003A8984709B0BDE8F08F1EB9C4F8088455
:1035F000C4F80C543544C4F81054F0E7000000003F
:1036000000000000000000000000000000000000BA
:1036100000000000000000000000000000000000AA
:10362000000000000000000038B504460068036890
:103630005B69984790B1D4F80434B3F5806F0DD02E
:10364000214651F8040B02681944D568C3F580621D
:10365000A847D4F804340344C4F804342046014B8A
:10366000984738BD000000002DE9F043064685B0BC
:103670000068274B90460D4698473168254B01A8B6
:1036800098472549254B01A89847044630B9DFF8EB
:103690009890371DD6F8F43A9C4207D30024204B6B
:1036A00001A89847204605B0BDE8F083384601A937
:1036B000C84710B901341C37ECE7414607F10C004C
:1036C000C8470028F6D03068D0F8083433F0020339
:1036D0001CD1D0F80C140A1FFC2A17D82B46C21C88
:1036E0004C1912F8016F03F8016BA342F9D14FF0A6
:1036F000FF330022C0F80834C0F80C24094B984767
:10370000041E18BF0124C5F80001C8E70020F7E730
:10371000000000000000000007030000000000009F
:103720000000000000000000000000002DE9F04152
:1037300000F110060446D4B0642200233046DFF8BE
:103740009880C047C8B9194B04A8984765681849BC
:10375000184B01A898472846174B01AA04A9984777
:103760000746164B01A89847154D304647B9A8475C
:10377000144B9847144B04A8984754B0BDE8F08107
:10378000A8476068114B04A99847114F04F124061B
:10379000642200233046C04730B960680D4B04A94D
:1037A00098473046A847E5E7B847F1E70000000032
:1037B000B90100000000000000000000000000004F
:1037C00000000000000000000000000000000000F9
:1037D00000000000000000000000000008B5054BDC
:1037E00098470548054B984710B10348044B984744
:1037F00008BD00BF00000000000000000000000045
:10380000000000002DE9F04100F110060446D4B09C
:10381000642200233046DFF89880C047C8B9194BAE
:1038200004A8984765681849184B01A89847284686
:10383000174B01AA04A998470746164B01A89847B9
:10384000154D304647B9A847144B9847144B04A868
:10385000984754B0BDE8F081A8476068114B04A9AF
:103860009847114F04F12406642200233046C047D4
:1038700030B960680D4B04A998473046A847E5E782
:10388000B847F1E700000000070300000000000057
:103890000000000000000000000000000000000028
:1038A0000000000000000000000000000000000018
:1038B0000000000008B5054C054D064E2046A847FF
:1038C00008B12046B047044B9847F7E700000000D6
:1038D0000000000000000000000000002DE9F04F93
:1038E000012204468A4689B000F11403D3E8EF1F91
:1038F000002903D1C3E8E52F002DF7D132D1DFF83D
:10390000E8802D4D64220023E06AC04700282ED1B4
:10391000636A04F11002186804F11801274B9847F4
:10392000274EE06AB047DFF89090DFF8C0B064221D
:103930000023A06AC047E0B9224B04A89847656AF3
:1039400027692868D847394652461F4F286804AB74
:10395000B8471E4F78B9A06AB0471D4B984705A8D5
:10396000B847E4E71B4B09B0BDE8F04F1847A8473C
:10397000C8E7C847DBE7049B05A945F8043F281DB5
:10398000154B9847A06AB047049D05A9134B01A8A1
:103990009847294601AA124B2046984701A8B847E4
:1039A00005A8B84720460F4B984780F00100C0B2E9
:1039B00009B0BDE8F08F00BF00000000000000006B
:1039C00000000000000000000000000000000000F7
:1039D00000000000000000000000000000000000E7
:1039E00000000000000000000000000000000000D7
:1039F00000232DE9F04F0122044689B08DF80030F4
:103A000000F11403D3E8EF1F002903D1C3E8E52F29
:103A1000002DF7D134D1DFF8EC802F4D6422002344
:103A2000E06AC047002837D1636A04F110021868C1
:103A300004F11801294B9847294EE06AB047DFF896
:103A40009890DFF8C4A0DFF8C4B064220023A06A15
:103A5000C04700283DD104A8D047656A2769286877
:103A6000D84739466A461F4F286804ABB8471E4FEF
:103A7000A0B9A06AB0471D4B984705A8B847E4E72E
:103A80001B4B9847184D04F11800A847201DA84764
:103A9000204609B0BDE8F08FA847BFE7049B05A901
:103AA00045F8043F281D134B9847A06AB047049D72
:103AB00005A9114B01A898472946104B01AA204699
:103AC000984701A8B84705A8B84720460C4B984727
:103AD000D8E7C847B9E700BF0000000000000000B9
:103AE00000000000000000000000000000000000D6
:103AF00000000000000000000000000000000000C6
:103B000000000000000000000000000000000000B5
:103B10002DE9F04F044600F11008A1B05B4E40467D
:103B200004F124090D4604F13807B0474846B04770
:103B30003846B0472046564B9847002840F0A080B2
:103B40004FF0FF324FF0FF33524938468847A068A4
:103B500029460368504DDB699847A06803689B6A53
:103B60009847002800F08F80A0684C490368252200
:103B70005B6898474A4E0820B0474A4AA368E0600D
:103B8000C0E900231420B0470546DFF858A1E068DB
:103B9000D0472B4643F8040B1846434B9847256003
:103BA00040F6F820B0470646E068D047354645F86D
:103BB000040B3E4B40F6F42200212846DFF828B1E2
:103BC000DFF828A1984706F6F423594628460993BA
:103BD000D04705F10C005946D047099B1C359D4242
:103BE000F3D100256660C6F8F45A314B29464FF4EC
:103BF000FA7098470146206500220023CDE906238C
:103C000005234FF4FA72CDE90253CDE90055294B53
:103C1000294E049504F15800B047E064274B284929
:103C2000984728490BA88DF82B50D047CDF8009025
:103C300043460BA92268244D0EA8A847234B0DF13B
:103C40002B010EA8984708B19DF82B00204B84F853
:103C500060010EA898471F4D0BA8A8471E490EA843
:103C6000D0474FF480730BAA0EA920460B931B4B31
:103C700098470EA8A8473846194B98479DF82B003F
:103C800021B0BDE8F08FA84767E700BF0000000043
:103C9000000000000000000000000000C201000061
:103CA000000000000800000000000000000000000C
:103CB0000000000000000000000000000000000004
:103CC000E8010000EF01000000000000000000001B
:103CD0000000000000000000F701000000000000EC
:103CE00000000000000000000703000000000000CA
:103CF0002DE9F04F012204468A4689B000F11403F1
:103D0000D3E8EF1F002903D1C3E8E52F002DF7D139
:103D100032D1DFF8E8802D4D64220023E06AC047ED
:103D200000282ED1636A04F11002186804F118010A
:103D3000274B9847274EE06AB047DFF89090DFF8AE
:103D4000C0B064220023A06AC047E0B9224B04A897
:103D50009847656A27692868D847394652461F4FF1
:103D6000286804ABB8471E4F78B9A06AB0471D4B0E
:103D7000984705A8B847E4E71B4B09B0BDE8F04FEA
:103D80001847A847C8E7C847DBE7049B05A945F8DB
:103D9000043F281D154B9847A06AB047049D05A90C
:103DA000134B01A89847294601AA124B2046984771
:103DB00001A8B84705A8B84720460F4B984780F0A0
:103DC0000100C0B209B0BDE8F08F00BF00000000E4
:103DD00000000000000000000000000000000000E3
:103DE00000000000000000000000000000000000D3
:103DF00000000000000000000000000000000000C3
:103E0000000000002DE9F04F9148A1B0914B924C79
:103E10009847DFF8C4824FF0FF324FF0FF338C48F1
:103E2000C0478E4D94F8349204F50870A8472F4689
:103E300002AEB9F1000F17D14FF0FF334FF0FF3250
:103E400004F50870C0472069854B9847002840F06A
:103E5000B6804FF4E1312069824B9847002840F04A
:103E6000AE8004F50870A8477F4B804D0FCB86E8E5
:103E70000F0018220823CDE90223A8477C4B3146C6
:103E80009847A8470446DFF854B27A490EA8D847A5
:103E9000DFF84C920EA92046C847774E774C306029
:103EA0000EA8A047764B774906A89847764F06A9F3
:103EB0003046B8470646754A75490AA890470AA988
:103EC0003046744EB0478246734E74490EA8B047D0
:103ED000DFF810820EA95046C0470EA8A0470AA8D6
:103EE000A04706A8A047A84782466D490EA8D84714
:103EF0000EA95046C847DFF8F0A1CAF800000EA886
:103F0000A047A8474FF4FA72DAF80010654B9847BB
:103F10005B4B654906A8984706A95046B8478246B4
:103F20005A4A5B490AA890475A4B0AA950469847F3
:103F300082465A490EA8B0470EA95046C0470EA85F
:103F4000A0470AA8A04706A8A047A8478246574905
:103F50000EA8D8470EA95046C847DFF89091C9F877
:103F600000000EA8A047464B514906A8984706A94D
:103F70004846B8470746454A45490AA89047454B31
:103F80000AA938469847074644490EA8B0470EA9E3
:103F90003846C0470EA8A0470AA8A04706A8A047D1
:103FA000A847054643490EA8B047C821424B0EAA70
:103FB000284698470EA8A04721B0BDE8F08F0023FF
:103FC00025693E498DF808300AA83D4B984705F110
:103FD000240300932A6805F110030AA9394D0EA89D
:103FE000A8473146384B0EA8984708B19DF80800FD
:103FF000DFF8FC9084F834020EA8C847DFF8F4809C
:104000000AA8C047DFF8B8A0304906A8D0472569FC
:104010002F490AA8D04705F1240300932A6805F127
:1040200010030AA9274D0EA8A8472A4B06A90EA8D7
:10403000984705460EA8C8470AA8C04785F001055D
:10404000034884F83552B84706A8C0470CE700BFBC
:10405000200200000000000000000000000000003E
:104060000000000000000000000000000000000050
:104070000000000000000000000000000000000040
:104080000000000000000000000000000000000030
:104090000000000000000000000000000000000020
:1040A0000000000000000000000000000000000010
:1040B00000000000000000000000000010080000E8
:1040C00000000000000000000000000007030000E6
:1040D0001E080000000000000000000000000000BA
:1040E00000000000000000000000000000000000D0
:1040F00000000000000000002DE9F8431A4B0446C0
:104100000F469847064618B900263046BDE8F883A2
:10411000237D1BB1D4E901239A4215D10025657591
:1041200000239846DFF84C90A8453B60EDD0204630
:10413000C8470028E8D02046C8470028E4D03B689C
:1041400008F101080133EFE79B1A2269B2EBA30FD4
:10415000E4D2064B20469847637D0546002BDFD00E
:104160002046034B9847DBE70000000000000000FA
:104170000000000000000000F8B5124A1368013387
:10418000012B136007D1104B104A1A600022C3E9BB
:1041900007221A765A620E4A13680133012B136004
:1041A0000FD1032500260B4C0B4FC4E9006604F128
:1041B00008004FF484620021B847013D04F585648E
:1041C000F3D1F8BD00000000000000000000000076
:1041D00000000000000000000000000008B5064AD2
:1041E0001368013B1360054A1368013B136013B960
:1041F0000348044B984708BD000000000000000081
:104200001C0000000000000000207047704707B548
:1042100003688DF8071001225B680DF107019847CC
:1042200003B05DF804FB0000004B184700000000DD
:10423000004908470000000038B50C1A002C13464E
:1042400005DD014622461846024DA84703461819C7
:1042500038BD00BF00000000002810B506D001DA0C
:10426000034B9847034BBDE81040184710BD00BFF3
:104270000000000000000000004B18470000000094
:1042800010B500F130044FF0FF3320464FF0FF32FD
:10429000034988472046BDE81040024B184700BF3D
:1042A000000000000000000070B5044600F508762C
:1042B0004FF0FF324FF0FF33304613498847D4F8B0
:1042C0001C32124A23B9304690474FF0FF3070BD80
:1042D000D4F81C32ABB1D4F8183223441D7DD4F885
:1042E00018320133C3F30803C4F81832D4F81C326F
:1042F000013BC4F81C323046D4F81C329047E8B277
:10430000E5E74FF0FF35F6E7000000000000000091
:1043100038B5044600F508754FF0FF334FF0FF3213
:1043200028460A498847D4F81C325BB1D4F81C32BD
:1043300043B1D4F818321C44247D2846044B9847D6
:10434000204638BD4FF0FF34F7E700BF0000000003
:10435000000000000A200021004B18470000000068
:1043600030B5836885B003930023D0E900420D681F
:10437000CDE9014205604D6845608D688560C1E901
:1043800000338B6001A8024B984705B030BD00BFD9
:10439000000000002DE9F047D0E901739F42044678
:1043A0008846DFF878A00AD039460120D04798F82F
:1043B00000300370636801336360BDE8F087134A1F
:1043C0000121134B9847134B266881469847B91B28
:1043D000014405460120D04798F800303946037063
:1043E0002A46DFF83C803046C0473946421C3846F2
:1043F000C047074626B1A1683046074B891B98473E
:10440000C4E900574D44A560D7E700BF6E03000024
:10441000000000000000000000000000000000009C
:10442000000000002DE9F047D0E901739F420446E7
:104430008846DFF878A00AD039460120D04798F89E
:1044400000300370636801336360BDE8F087134A8E
:104450000121134B9847134B266881469847B91B97
:10446000014405460120D04798F8003039460370D2
:104470002A46DFF83C803046C0473946421C384661
:10448000C047074626B1A1683046074B891B9847AD
:10449000C4E900574D44A560D7E700BF6E03000094
:1044A000000000000000000000000000000000000C
:1044B000000000002DE9F043037D05460F4685B05E
:1044C0001BB1D0E90123934205D100236B75002075
:1044D00005B0BDE8F08306699B1AB6EBA30FF4D2D2
:1044E0004FF001083A4B80F815809847C5284FF0E7
:1044F00000042ED0C62848D0C42861D14246314697
:104500002846DFF8E480CDE901440394C04706461D
:10451000DFF8D890E3B29E4229690FD801312961B2
:1045200038462C4B01A998472B4B01A898476B7D27
:10453000002BCCD02846294B9847C9E7A21C284617
:10454000C0470DF103018DF8030001A8C8470134ED
:10455000E0E7424631462846214BCDE90144039429
:1045600098470646DFF88080DFF88090A3B2B34218
:104570002969D3D2E21C2846C0470DF103018DF80A
:10458000030001A8C8470134F0E7424631462846F7
:10459000144BCDE90144039498470646DFF8488060
:1045A000DFF84890A6422969B8D0621D2846C04766
:1045B0000DF103018DF8030001A8C8470134F1E7AC
:1045C0000136CDE901446C752E610394A8E700BF64
:1045D00000000000000000000000000000000000DB
:1045E00000000000000000000000000000000000CB
:1045F00007B5044B8DF807100DF10701984703B07C
:104600005DF804FB000000002DE9F047D0E90173DC
:104610009F4204468846DFF878A00AD03946012038
:10462000D04798F800300370636801336360BDE8D9
:10463000F087134A0121134B9847134B2668814694
:104640009847B91B014405460120D04798F800302F
:10465000394603702A46DFF83C803046C047394669
:10466000421C3846C047074626B1A1683046074B72
:10467000891B9847C4E900574D44A560D7E700BFA0
:104680006E030000000000000000000000000000B9
:1046900000000000000000007E2913B504460AD87F
:1046A0000D4B8DF807100DF107019847E3680133B2
:1046B000E36002B010BDFF2903D8084BC9B2984788
:1046C000F7E7B1F5803F03D2054B89B29847F0E791
:1046D000044B9847EDE700BF000000000000000019
:1046E000000000000000000073B50C1E054621DB31
:1046F0007E2C08DC8DF8044001A9234B9847EB6819
:104700000133EB6008E0E317B4F5807F73F100023A
:1047100004D21E4BE1B2984702B070BDB4F5803FA1
:1047200073F1000303D21A4BA1B29847F4E7194B77
:104730009847F1E714F11E0FDCDA14F1800F164BE5
:1047400006DBD021984728468DF8044001A9D4E71C
:1047500014F5004F114E0BDBD121ADF80440984702
:1047600028460DF10501B047284601A9B047C6E724
:104770000194D2219847032401AB19192846B04768
:10478000013CF9D2BBE700BF0000000000000000C0
:104790000000000000000000000000000000000019
:1047A0002DE9FF470025894698460446D0F818743D
:1047B00004216846DFF874A01646CDE90055CDE91E
:1047C0000255D04729466846134B9847134B394644
:1047D00068469847124D49466846A84701216846F1
:1047E000D04741466846A847DDE900156D1A2A46BC
:1047F00020460C4B984785420B4A04D068469047A8
:1048000004B0BDE8F087D4F8183468460133C4F822
:10481000183490473760F3E7000000000000000004
:104820000000000000000000000000000000000088
:104830002DE9FF470025894698460446D0F81874AC
:1048400004216846DFF878A01646CDE90055CDE989
:104850000255D0472946154B68469847144D3946AE
:104860006846A847134B4946684698470121684661
:10487000D0476846D8F80010A847DDE900156D1A42
:104880002A4620460C4B984785420C4A04D068467D
:10489000904704B0BDE8F087D4F818346846013377
:1048A000C4F8183490473760F3E700BF00000000F9
:1048B00000000000000000000000000000000000F8
:1048C0000000000038B5037D04460D461BB1D0E959
:1048D0000123934203D100236375002038BD9B1A46
:1048E0000269B2EBA30FF6D2044B98472860637DB0
:1048F000002BF2D02046024B9847EFE70000000063
:1049000000000000F8B50E46044617461D46006834
:10491000094B984731462B46084E3A462068B04727
:10492000064638B1294651F8043B44F8043F201D9F
:10493000034B98473046F8BD00000000000000001F
:10494000000000002DE9F04304460D461646DFF84E
:104950009490DFF8948085B000F12407642200234E
:104960003846C847002831D12368CDE90000CDE999
:104970000200DFF8789068460321D3F80080C8472A
:10498000134B684602219847124C29466846A047B7
:1049900068460121C84731466846A047DDE9001452
:1049A000641A0D4B224640469847844208BFD8F807
:1049B0001834684604BF0133C8F81834074B9847C9
:1049C0003846074B05B0BDE8F0431847C047C5E778
:1049D00000000000000000000000000000000000D7
:1049E00000000000000000000000000000000000C7
:1049F0002DE9F041044600F130070E4615464FF010
:104A0000FF334FF0FF323846064988472046294693
:104A1000054B40F8046B98473846BDE8F041034B1E
:104A2000184700BF00000000000000000000000068
:104A30002DE9F043D0F8146404460F4690461D4615
:104A40008BB096B14A4B04A898474A4B04A89847A4
:104A5000D4F81034211D19443246474B04A8984716
:104A600038B90026454B05A8984730460BB0BDE83D
:104A7000F0834FF00009424E03AB02AA01A904A83B
:104A8000CDF80490B04706460028EAD0039BBB420D
:104A9000E7D1029B3B4F012B1BD02846FC233A4910
:104AA00040F8043B394B98472046D4F81024D4F8FA
:104AB0001414B847D4F810342BB94FF0FF32C4F8AF
:104AC0000C34C4F80824D4F81C340133C4F81C3462
:104AD000C8E7019B042B05D02846FC232C4940F84D
:104AE000043BDFE72B4B04A88DF800909847C028C3
:104AF00031D19DF824301BB1DDE905239A4208D15C
:104B000000238DF825302846FC23234940F8043B38
:104B1000C8E79B1A089AB2EBA30FF1D21F4B04A867
:104B200098479DF825308DF80000002BEBD04146CA
:104B30001B4B04A898470028E5D0D4F810242AB9C4
:104B40004FF0FF33C4F80C24C4F808342046D4F8DE
:104B50001414B84786E76A462946124B04A89847BA
:104B60000028EAD12846FC230F4940F8043B99E786
:104B70000000000000000000000000000000000035
:104B80000000000000000000C30000000000000062
:104B9000DC00000000000000F90000000000000040
:104BA00000000000000000001A0100002DE9F04F95
:104BB000A3B003AF0C469046814692493846924EC8
:104BC000B047DFF888A204EB0805AC4275D14FF07E
:104BD000000A99F83532D9F810508C4C8C49CDF830
:104BE00008A0002B00F00181A94606A8B047DFF815
:104BF000608259F810BB10A8C047243506A9CDE93A
:104C000014AA844B16A8984714225146CDE919B925
:104C1000814B1B951CA898472197804B1CA898474F
:104C20007F490CA8B0477F4DFF210CAA10A8A847C8
:104C30000CA8A047012315A9D1E8EF2F524503D1B5
:104C4000C1E8E03F0028F7D13CD1DFF8E891764D8C
:104C5000642200231B98C847002840F085801998DB
:104C6000219B006814AA16A9704DA8471B98704B89
:104C70009847DFF8B491DFF8DCA1642200231A988A
:104C80006C498847002840F08D800CA8C047199DCA
:104C9000DDF850B02868D04759462868DFF8B8B129
:104CA0000CAB02AAD847002860D11A98604B9847ED
:104CB000614B98470DA8A047DFE7384614F8011B61
:104CC000D04782E75D490CA8B04710A8FF210CAA85
:104CD000A8470CA8A04700238DF80430012315A98C
:104CE000D1E8EF2F002A03D1C1E8E03F0028F7D137
:104CF0005AD1504E4C4D642200231B98B0470028D7
:104D000069D11998219B0068484D14AA16A9A84793
:104D10001B98474DA847DFF81091DFF840A1DFF856
:104D200018B1642200231A98B04700285BD10CA860
:104D3000C047149919980CAB01AAD04700284CD051
:104D40001A98A8470C9D0DA9324B09A898472946E7
:104D5000344B09AA10A8984709A8A0470DA8A04756
:104D6000374B10A8984729E0A84771E70C9B0DA97D
:104D700045F8043F281D334B98471A982C4B984709
:104D80000C9D0DA9234B09A898472946254B09AA34
:104D900010A8984709A8A0470DA8A047284B10A81D
:104DA000984798E7C84768E724490CA8B04710A877
:104DB000FF211C4B0CAA98470CA8A04716A8A04797
:104DC00011A8A04706A8A047029D3846A04728463C
:104DD00023B0BDE8F08FA8478DE71A98A847D847B9
:104DE0000DA8A0479DE7C8479BE710A8B0473A46E3
:104DF0002846154B10A9984710A8A047CDF8088061
:104E0000E2E700BF0803000000000000000000000F
:104E10001002000000000000000000000000000080
:104E20001A02000000000000000000000000000066
:104E30000000000000000000000000003802000038
:104E40000000000000000000000000000000000062
:104E50000000000000000000000000000000000052
:104E60002DE9F041044600F130070E4615464FF09B
:104E7000FF334FF0FF32384606498847204629461F
:104E8000054B40F8046B98473846BDE8F041034BAA
:104E9000184700BF000000000000000000000000F4
:104EA00038B5044600F130054FF0FF3207494FF0A6
:104EB000FF332846884724682846002CD4BF0024A6
:104EC0000124034B9847204638BD00BF0000000076
:104ED000000000002DE9F043D0F8146404460F46AA
:104EE00090461D468BB096B14A4B04A898474A4B52
:104EF00004A89847D4F81034211D19443246474B72
:104F000004A8984738B90026454B05A8984730466D
:104F10000BB0BDE8F0834FF00009424E03AB02AA8C
:104F200001A904A8CDF80490B04706460028EAD0AD
:104F3000039BBB42E7D1029B3B4F012B1BD0284672
:104F4000FC233A4940F8043B394B98472046D4F8B3
:104F50001024D4F81414B847D4F810342BB94FF0F7
:104F6000FF32C4F80C34C4F80824D4F81C340133DC
:104F7000C4F81C34C8E7019B042B05D02846FC2349
:104F80002C4940F8043BDFE72B4B04A88DF8009038
:104F90009847C02831D19DF824301BB1DDE90523A5
:104FA0009A4208D100238DF825302846FC23234956
:104FB00040F8043BC8E79B1A089AB2EBA30FF1D262
:104FC0001F4B04A898479DF825308DF80000002B52
:104FD000EBD041461B4B04A898470028E5D0D4F8F5
:104FE00010242AB94FF0FF33C4F80C24C4F8083455
:104FF0002046D4F81414B84786E76A462946124B6F
:1050000004A898470028EAD12846FC230F4940F815
:10501000043B99E7000000000000000000000000D1
:10502000000000000000000000000000C3000000BD
:1050300000000000DC00000000000000F90000009B
:105040000000000000000000000000001A01000045
:105050002DE9F04F012204468A4689B000F114037D
:10506000D3E8EF1F002903D1C3E8E02F0028F7D1D0
:105070000CBF1546002534D1DFF80081324D642283
:105080000023E06AC04700283BD1606A636C006877
:1050900004F1100204F118012C4DA8472C4EE06ACF
:1050A000B047DFF8A490DFF8D8B064220023A06AEC
:1050B000C047002845D1274B04A89847656A27694F
:1050C0002868D84739465246234F286804ABB8476A
:1050D000224FC0B9A06AB047214B984705A8B847EE
:1050E000E3E72049204B04A89847FF2120461F4BA7
:1050F00004AA9847194B04A89847284609B0BDE868
:10510000F08FA847BBE7049B05A945F8043F281D7D
:10511000174B9847A06AB047049D164B05A901A8F4
:1051200098472946114B01AA2046984701A8B8473D
:1051300005A8B8472046104B984780F00100C0B240
:10514000DCE7C847B1E700BF000000000000000036
:10515000000000000000000000000000000000004F
:105160000000000038020000000000000000000005
:10517000000000000000000000000000000000002F
:10518000000000002DE9F04FA3B00646039179B16D
:1051900000F5087B4FF0FF334FF0FF325846DFF841
:1051A000D081C04796F834322BB95846604B9847A7
:1051B00023B0BDE8F08F002435695E495E4F09A831
:1051C000CDE906440894B8472B4653F8102BDFF876
:1051D000A49110A8CDE90123DFF89CA1C84709A933
:1051E00016A8CDE91444D047019A029B19921A934C
:1051F00014222146514B24351CA81B95984703AB1C
:1052000021934F4B1CA898474E490CA8B8474E4DC8
:10521000FF210CAA10A8A8474C4C0CA8A04709A82D
:10522000A0474B4B06A910A89847002846D15846DE
:105230003F4EB04700238DF81430012315A9D1E863
:10524000EF2F002A03D1C1E8E03F0028F7D10196F3
:1052500050D1404F642200231B98C04700285BD1E7
:105260001998219B00683C4F14AA16A9B8471B98AF
:105270002F4FB847DFF8DCB0642200231A98C047EC
:10528000002853D10CA8C847344E149919980CAB78
:1052900005AAB047002841D0019B1A9898470C9E58
:1052A0000DA909A8D047314609AA10A8A84709A8FE
:1052B000A0470DA8A0472A4B10A824E0DDE906214D
:1052C0008A42B4D0D6F81C32B3F5007F10D0D6F89D
:1052D0001432107833441875D6F814320133C3F3FE
:1052E0000803C6F81432D6F81C320133C6F81C3253
:1052F0000132E5E71B490CA8B84710A8FF210CAA0A
:10530000A847124B0CA8984716A8A04711A8A04779
:10531000154B06A898474BE7B8479BE71A98B8473C
:10532000124B9847094B0DA89847A5E7D847A3E724
:105330000000000007020000000000000000000064
:10534000000000001A020000000000000000000041
:10535000000000000000000000000000000000004D
:105360000000000038020000000000000000000003
:1053700000000000000000000000000038B50446F6
:1053800000F508750B494FF0FF324FF0FF33284608
:105390008847D4F81C12C1F50071002902DD2046AF
:1053A000054B9847D4F81C422846044B98472046A2
:1053B00038BD00BF00000000000000000000000039
:1053C000F8B52E4A2E4E13680133012B136006D117
:1053D00000222C4BC3E907221E601A765A62002471
:1053E000294F142221462948C6E90044F460B847F1
:1053F000142221462648B847142221462548B8479A
:105400004FF4847221462448C6E91344B847234B1D
:10541000234DB3604FF47A73AB60224B4FF40072AC
:10542000214605F114002B6086F860416C602E6106
:10543000B8471422214605F50870C5F81442C5F88E
:105440001842C5F81C42B8474FF48073164AA5F8B5
:10545000343213680133012B13600DD10326134D31
:10546000C5E9004405F108004FF484620021B84703
:10547000013E05F58565F3D1F8BD00BF00000000D1
:10548000000000000000000000000000100000000C
:105490002400000038000000580000000000000058
:1054A00000000000080000000000000000000000F4
:1054B00008B5064A1368013B1360054A1368013BAF
:1054C000136013B90348044B984708BD000000005F
:1054D000000000001C000000000000007047704742
:1054E0004FF0FF324FF0FF33004908470000000043
:1054F00010B504461421024B9847204610BD00BF4A
:105500000000000010B504466021024B9847204679
:1055100010BD00BF000000001421014B184700BF60
:1055200000000000054B10B599420446084602D021
:10553000034B984708B104F1100010BD00000000B3
:1055400000000000054B10B599420446084602D001
:10555000034B984708B104F10C0010BD0000000097
:1055600000000000014B0901184700BF00000000C7
:1055700010B50C46044B014604209847236803608D
:105580000023236010BD00BF00000000F0B50368D9
:10559000044653F8210080B1056817686B689F4284
:1055A0000BD02B6863B15A6828466568B2FBF5F6E4
:1055B00005FB1622914201D00020F0BD1D46EDE70B
:1055C0001846FAE738B51A4D2B6813F001032CD1B1
:1055D0002021102217480124C0E9001247F230525E
:1055E000C26000F15402C0E90F244FF07E52C0E9BE
:1055F0000544C0E90743C0E90933C0E90B33C0E9FA
:105600000D33C0E91133C0E91433C0E92333047208
:105610000374C264C0F8943080F89830064B9C3014
:1056200098470648064B2C609847024838BD00BF93
:10563000D8100000DC100000000000000000000096
:10564000000000006021014B184700BF000000006F
:10565000034610B568B1B0F1005F05D3B0F1804FDB
:105660002CBF044B044B9847044B8000BDE810400E
:10567000184710BD000000000000000000000000FE
:1056800010B5836804462BB10322014698470023D6
:10569000C4E9023310BD0000004B184700000000B1
:1056A0000068014B184700BF00000000002330B520
:1056B00085B0CDE901330A4D039300F1580400226F
:1056C0000023204601A9A84708B105B030BD029BC0
:1056D000002BF4D003980028F1D09847EFE700BFE3
:1056E0000000000010B50A46C16841B9806800B9E1
:1056F00010BD116843689942FAD00068F7E7436823
:105700001168B1FBF3F403FB1411034B9847002815
:10571000EED00068ECE700BF0000000010B50446C2
:10572000034B98472046BDE81040024B184700BF86
:10573000000000000000000010B504684CB1054BEB
:1057400004F1100098472046BDE810405021024B5C
:10575000184710BD000000000000000010B504460E
:10576000034B183098472046024B984710BD00BFA6
:1057700000000000000000002DE9F041D0E90067C2
:10578000BE42044609D03546DFF8148005F1080012
:105790001C35C047AF42F9D16660BDE8F08100BF5B
:1057A00000000000002313B543600B6804461BB9DA
:1057B0000360204602B010BD019001AA0220984764
:1057C000F7E710B5036804462BB101460022032019
:1057D00098470023236010BD08B50C30014B984753
:1057E00008BD00BF0000000037B50B6805460C4639
:1057F0001BB9074B984703B030BD8142FBD0044B27
:105800009847214604202368019501AA9847F2E7AA
:105810000000000010B504460B78083000F8083C82
:105820004B68083140F8043C014B9847204610BDB6
:10583000000000000B6803604B68436013B15A68B6
:1058400001325A607047000010B504460B780830EA
:1058500000F8083C4B68083140F8043C014B98477D
:10586000204610BD00000000002310B50446037060
:1058700043600349034B08309847204610BD00BFE2
:105880005902000000000000034B04481A68D207C8
:105890005CBF01221A607047D0100000D4100000D5
:1058A0007FB5164B1446019198470546144B9C3022
:1058B0000390984705F13C00124B01A99847054613
:1058C00018B183680BB11E7826B10F4B03A8984717
:1058D00004B070BD24B900200021C3E90201F4E73F
:1058E0000A4B984731460023094A0A4EB047AD6833
:1058F000001941F10001C5E90201E6E700000000DE
:105900000000000000000000000000000000000097
:1059100000710200000000001FB50C4B0191984778
:1059200004460B4B9C300390984704F13C00094B14
:1059300001A99847044610B1846804B1647803A8AB
:10594000054B9847204604B010BD00BF0000000082
:10595000000000000000000000000000826810B598
:105960000AB9034B9847C368BDE81040184700BF09
:105970000000000008B5014B984708BD000000007A
:1059800010B50446006818B1A168024B091A98477F
:10599000204610BD0000000070B500260D460446EC
:1059A000084BC0E9006686609847EB68E360AB6827
:1059B00033B195E80300C5E9026684E80300A360FB
:1059C000204670BD00000000F0B590F898600546D4
:1059D0000F4685B0D6B110200E4B98470146A8B1AE
:1059E0000D4B10209847044639460C4B98470C4FF6
:1059F0000C4BCDE902740193002205F158000023FD
:105A0000094D01A9A84710B12046B84700263046E5
:105A100005B0F0BD00000000000000000000000024
:105A200000000000000000000000000070B50E4BF8
:105A300086B00E46984705460C4B9C30019098471F
:105A40002C7C5CB131460A4B02A89847094B28468A
:105A500002A99847084B044602A8984701A8074B9B
:105A60009847204606B070BD00000000000000000E
:105A70000000000000000000000000000000000026
:105A800070B500260D460446084BC0E900668660E6
:105A90009847AB68E6603BB102222946204698470A
:105AA000EB68E360AB68A360204670BD00000000B7
:105AB0002DE9F041284B86B004469847274B054610
:105AC0009C300190984714F8153C254F002B3DD091
:105AD0002B7CA4F1100653B114F8163C3BB114F81A
